:100000000004002011040000F95C0000F95C00000D
:10001000F95C0000F95C0000F95C0000F95C00008C
:10002000F95C0000F95C0000F95C0000F95C00007C
:10003000F95C0000F95C0000F95C0000F95C00006C
:10004000F95C0000F95C0000F95C0000F95C00005C
:100050008B4B0000F95C0000F95C0000F95C0000CB
:10006000F95C0000F95C0000F95C0000F95C00003C
:10007000F95C0000F95C0000F95C0000F95C00002C
:10008000F95C0000F95C0000F95C0000F95C00001C
:10009000F95C0000F95C0000F95C0000F95C00000C
:1000A000F95C0000F95C0000F95C0000F95C0000FC
:1000B000F95C0000F95C0000F95C0000EF3800001A
:1000C000F95C000013390000F95C000037390000CA
:1000D000F95C00005B390000F95C0000F95C00008D
:1000E000F95C0000F95C00006156000071560000E8
:1000F00081560000F95C0000F95C0000F95C00002A
:10010000EB4B00000B4C0000234C00008B57000011
:10011000F95C0000F95C0000F95C0000F95C00008B
:10012000F95C0000F95C0000295E00000D3B000056
:10013000473B0000813B0000B73E00009F3B0000B2
:10014000F95C0000F95C00007F390000F95C0000F8
:10015000F95C0000F95C0000F95C0000F95C00004B
:10016000F95C0000F95C0000F95C0000F95C00003B
:10017000F95C0000F95C0000F95C0000F95C00002B
:10018000F95C0000F95C0000F95C0000F95C00001B
:10019000F95C0000F95C0000F95C0000095D0000FA
:1001A000F95C0000F95C0000F95C0000F95C0000FB
:1001B000F95C0000F95C0000F95C0000F95C0000EB
:1001C000F95C0000F95C0000F95C0000F95C0000DB
:100410004FF000004FF000014FF000024FF00003DA
:100420004FF000044FF000054FF000064FF00007BA
:100430004FF000084FF000094FF0000A4FF0000B9A
:100440004FF0000C62B605F07FFBFEE72DE9F043AC
:100450009FB00FF28419269CDFF8CC8A02918DF8A8
:100460003B4000210B914FF0FF37044616461D46D6
:100470000AE016F8011B0298A0470028029000F03D
:1004800099800B98401C0B90307850B12528F0D102
:1004900000200021059006910790089109900A918B
:1004A00003E00B989CE041F0010116F8010F2028B1
:1004B000F9D023280CD02B2804D02D2805D03028A3
:1004C00009D079E041F00201EFE741F00401ECE7E7
:1004D00041F00801E9E741F01001E6E700200D9046
:1004E00009E00D98404505DA00EB800302EB43027A
:1004F000303A0D92761C3278A2F130000A28F0D3FF
:1005000032782E2A18BF0C9723D116F8010F2A280B
:1005100007D128682860761C50F8042B28600C92BC
:1005200017E02D280CBF16F8010B002000220C92BA
:100530000AE040B90C9A424505DA02EB820203EB6D
:100540004203303B0C93761C3378A3F130020A2A25
:10055000EFD3ADF838104846317800F069FE08B1A5
:1005600016F8010B8DF83A009DF83A00682804BF90
:100570003178682903D162208DF83A0007E06C28B1
:1005800004BF30786C2803D171218DF83A10761CA5
:1005900010A804902A4616F8013B6946204600F050
:1005A0005FF838B910AA6946204600F08BF9002898
:1005B0007FF56AAF384613E02A288FD12A682A606F
:1005C00052F8040B2A6000280D9003D540420D908C
:1005D00041F00401761C93E7686A6C747A4C000061
:1005E0001FB0BDE8F083622820D0682811D06A28A7
:1005F00003D06C2827D0712825D10868C01D20F0B1
:1006000007000860D0E9002308300860194610464A
:100610007047002A0A680A60106803D0121D0A6039
:1006200000B217E0121D0A6080B217E0002A0A68C3
:100630000A60106803D0121D0A6040B20AE0121D61
:100640000A60C0B20AE0002A0A680A60106803D093
:10065000121D0A60C1177047121D0A600021704701
:1006600070B51C460D46B4F125002E69114600F008
:1006700017811C386AD0001F022867D9133843D06D
:10068000093863D0801E16D0401E1ED0401E02289E
:100690005CD9001F19D0401F00F08380401E33D06A
:1006A000401E00F0CD80C01E00F0D880801E2BD0F0
:1006B000C01E29D0FAE06869421C6A610A680A60B3
:1006C00052F8043B0A603354FAE095F83A000122EC
:1006D000FFF789FFC5E900010023994204DA686940
:1006E000411C69612D210DE0288F810704D56869BF
:1006F000411C69612B2105E0C00722D56869411CB6
:100700006961202131541CE095F83A000022FFF77E
:100710006AFFC5E9000195F83800010711D5D5E950
:1007200000230020834208BF82420AD044F0200008
:10073000782806D1686930213154401C411C696118
:100740003454214668693044E86083E00868C01D7D
:1007500020F007000860D0E9002308300860C5E9F0
:100760000023D5E90001C80F04D06869411C696104
:100770002D210DE0288F810704D56869411C69612E
:100780002B2105E0C00704D56869411C696120215F
:10079000315468693044E8602146284600F0C4F9C5
:1007A0008EE005F13A02507820B14FF0FF340FF699
:1007B00018205EE01078622808D0682824D06A28C3
:1007C00012D06C282ED071280ED02BE00A680A6057
:1007D00052F8040B0A6020B94FF0FF340FF60020E6
:1007E00047E0E96A01706BE00A680A6052F8040B9E
:1007F0000A6020B94FF0FF340FF6E41039E0EA6ADE
:10080000D317C0E900235BE00A680A6052F8040BC2
:100810000A6020B94FF0FF340FF6C41029E0E96AEE
:1008200001804DE00A680A6052F8040B0A6020B9A2
:100830004FF0FF340FF6A8101BE0E96A01603FE0BB
:100840000A680A6052F8040B0A600021C5E9000139
:10085000EE607821284600F0BBF831E008680860B7
:1008600050F8044B0860EC603CB94FF0FF340FF6D1
:10087000881000F0E9FC201A70BD2E6B002E04D504
:10088000204600F003FD044608E0324600212046E1
:1008900000F018FD002814BF041B3446AC610FE0C3
:1008A0006869411C69612521315409E06969481C66
:1008B000686125227254210002D0411C69613454C0
:1008C000002070BD2DE9FC410F460646796B786922
:1008D000BC6A091A386A091AB869091A786A091AC1
:1008E000F869091A97F838000C1B410790460FD495
:1008F0002021002C8DF800100ADD254601236A46D0
:100900003946304600F049FC00285DD16D1EF5D116
:100910007B6942463946304600F03FFC002853D1FF
:1009200030208DF800003D6A002D09DD01236A4664
:100930003946304600F031FC002845D16D1EF5D116
:10094000BB69FA683946304600F027FC00283BD1E5
:1009500030208DF800007D6A002D08DD01236A46F5
:100960003946304600F019FC70BB6D1EF6D1F868B0
:10097000B969FB6942183946304600F00EFC18BBD5
:1009800030208DF80000BD6A002D08DD01236A4685
:100990003946304600F001FCB0B96D1EF6D197F82B
:1009A000380041070DD52021002C8DF8001008DDFE
:1009B00001236A463946304600F0EFFB20B9641E39
:1009C000F6D10020BDE8F6814FF0FF30BDE8F6819A
:1009D0002DE9FC4704468A462569BAF16F0F08BF26
:1009E000082605D04AF02001782914BF0A261026CF
:1009F0003C27D4E90023BAF1640F18BFBAF1690F9C
:100A00009046994606D100218B4203DAD8F10008BE
:100A100069EB49090020814508BF80451FD1206B43
:100A2000E8B9082E4CD194F83800010748D5302099
:100A30003B2785F83B0043E000280ED594F83800AA
:100A400000F01400102808D1626B6069121A206A45
:100A5000121A511A0029C8BF2162BDE8F3878DF828
:100A600000A0404649463246F31700F057FC3032AA
:100A7000D2B27F1E3A2A019704DB9DF80000A0F154
:100A800051018A18EA55404649463246F31700F0AC
:100A900045FC804689460020814508BF804503D03B
:100AA000E068E9198842DCD3082E09D194F83800AF
:100AB000010705D5E95D302902D07F1E3020E855B9
:100AC000C7F13C01A161E819E060206B8142B3DA13
:100AD000411A21624FF6EF70218F01402187BDE856
:100AE000F3872DE9D04306460F4614464FF0000821
:100AF000DFF8389412E0E00707D542464B4630460F
:100B0000394600F023FD06460F4640464946424618
:100B10004B4600F01BFD641080468946002CEAD14C
:100B200030463946BDE8D0832DE9F34F054641F004
:100B300020048DB0D5E90089612C02AE09D0286B64
:100B4000002848BF062003D408BF672C01D101202C
:100B50002863D5E9002358004015401C0ED1190325
:100B60000CD00320A8619DF8380061381A2802D201
:100B70000FF2A06111E00FF2A0610EE058004015E5
:100B8000401C0FD119030DD10320A8619DF8380036
:100B900061381A2814D30FF28861E868032200F044
:100BA000A7FDD3E1194621F00043B3F5801F10469D
:100BB0000DD20027BB4208BFBA42019703D111E012
:100BC0000FF25861E9E701AA00F0E6FD0AE0DFF85C
:100BD000607307EB1352DFF85C3301921940DFF8C2
:100BE00058331943C5E90001612C0ED1E868302162
:100BF0000170811CE9609DF8381061290CBF7821D3
:100C0000582141706869801C6861D5E900AB2BF000
:100C1000004300202AF00002834204BF82420023E6
:100C200000F05A81612C40F0A980286B00284CBF4D
:100C30002120401C00904046009F7F1C4946002216
:100C4000002300F0E1FDD94601988DF8082038BF57
:100C500089F00049001F0190002FD0460DF10900D6
:100C600040F3498140F2FF71DFF8D0B20C910646A3
:100C7000404649460022002300F0DEFD80F03A8124
:100C80004800400D00F11C0210D0002A0EDD0C9827
:100C9000824205DB09F0004040EA0B01002013E02E
:100CA000A448084040EA025140460DE029F00043C4
:100CB000002028F00002834208BF82420FBF404656
:100CC0001C22404600F0D0FD8046894600F06AFEB6
:100CD000FF1F002F044609DD00F082FE02460B468E
:100CE0004046494600F08EFE80468946F01D0721A9
:100CF00004E004F00F0200F8012D2411002C01DDA6
:100D0000491EF6D5491E5CBF002200F8012DF9D519
:100D1000ECE00020194602AA0A4400E05B1E12F82B
:100D20000149491E8442F9D00F2804D10DF1090070
:100D3000425C521C4254002904D50198001D02AEA9
:100D40005B1C0190591E12D49DF838007218A0F156
:100D50003A04177830375FFA87F8B8F1390FC8BF0F
:100D6000A044491E02F80189F3D58DF83800286B9C
:100D7000002840F1B080591E2963ACE04046494646
:100D80000022002300F040FD019938BF89F000499E
:100D900047F2975041436A4A91FBF2F20192D2F135
:100DA000070204DD40464946FFF79BFE0AE0524237
:100DB00000206449FFF795FE02460B46404649462F
:100DC00000F092FE8046662C286BDFF87CB106BFEF
:100DD000019F0A3706273F18142FC8BF1427302059
:100DE0008DF8080089460DF1090000E03046002F1B
:100DF00034DD06464046494600F09AFF01460A4661
:100E000006F1080304200A26B2FBF6F606EB860E6E
:100E1000A2EB4E02303203F8012C0A22B6FBF2F2AA
:100E200002EB820EA6EB4E063036401E03F8026D32
:100E3000E9D1083F002F03F10806D7DD084600F08E
:100E40008BFF02460B464046494600F0DBFD002280
:100E50005B4600F07BFB80468946CBE70DF109013C
:100E6000401A0DF1090604E00199491E401E019146
:100E7000761C31783029F7D0662C02D10199491CB3
:100E800003E0652C0CBF012100212B6BCB1898428D
:100E9000B8BF431E002B1ED4834204DAF05C352811
:100EA000A8BF392000DA30201946721E02EB010873
:100EB00000E05B1E18F80199491E8145F9D03928D8
:100EC00002D1705C401C7054002904D50198401C6C
:100ED00016465B1C0190019800B200901BB29DF871
:100EE00038103246284600F034F82FE0C61D002F97
:100EF0003FF7BEAE30460DF10901401A0099034696
:100F00008842C8BF0B46002B0DF109063FF52FAFF5
:100F10008342BFF6FEAE0DF10900C05C07287FF7E3
:100F2000F8AE0F20F6E60000CBCCCC0C000024403D
:100F300002FCFFFFFFFF0F800000E03F0000F07F9A
:100F4000A08601000000F03F84D797410FB0BDE8B4
:100F5000F08F2DE9FC46064683B01C46376B002C0B
:100F6000914602DC01240FF2BC298A46BDF93050BB
:100F70004AF02000662808BF6D1C12D0672878D17F
:100F800015F1040F7BDBBD4279DA96F838006D1C51
:100F9000010702D4BC42B8BF27462DB27F1B48BF11
:100FA00000272DB2F068B169002D23DC4A1C3023E4
:100FB0004354002F03DC96F83800010703D5F0688E
:100FC0002E218154521CEF42B8BF7D422DB268429F
:100FD000ED19A542B8BF2C46B261706224B2F4612B
:100FE000F068B36922464946184400F081FB281B8B
:100FF000B062BBE02A469442084416DA22464946CB
:1010000000F076FBB0692018B0612C1B002F7462D1
:1010100003DC96F838100A0705D5F1682E220A5429
:10102000F069401CF061B762A0E0494600F060FB47
:10103000B0692818641B002F03DC96F838100A07E3
:1010400003D5F1682E220A54401CB06124B2A74295
:10105000B8BF3C46F068B36924B2224609EB0501EB
:10106000184400F045FBB0692018B0613C1B746265
:101070007CE0BAF1610F14D14FF0700A16E0BC4267
:1010800004DA96F838100A0758BF27467F1E48BF73
:101090000027BAF1670F14BF4FF0450A4FF0650AF9
:1010A00004E0BAF1410F08BF4FF0500AB169F3688C
:1010B000481CB061002F19F8012B5A5403DC96F834
:1010C00038100A0717D5F268431CB3612E2111545A
:1010D000002F10DD641E24B2A742B8BF3C46F06862
:1010E00024B222464946184400F002FBB069201899
:1010F000B0613F1B7762F068B1690844002D80F849
:1011000000A003D42B214170811C03E02D214170EC
:101110006D42811C00206A460AE02B460A2493FB9C
:10112000F4F505EB8504A3EB440302F8013B401CF6
:101130002DB2002DF1DC012806DC4AF02002652AE0
:1011400004BF302201F8012B48B9302001F8010B0F
:1011500007E0401E1DF80020303201F8012B002866
:10116000F7DCF068B2691044091AF16196F83800AA
:1011700000F0140010280DD17169B0694118706A2F
:101180004118F0694118B06A4118706B8142BCBFC8
:10119000411A316205B0BDE8F086F8B505460E4645
:1011A00017461C46002074B117F8011BB068A84709
:1011B000B06030B1F06A401CF0620020641EF3D1D0
:1011C000F2BD4FF0FF30F2BD7072696E74665F73EE
:1011D0003A20256E20646973616C6C6F77656400DA
:1011E0007072696E74663A2062616420256E2061B7
:1011F0007267756D656E74007072696E74665F7388
:101200003A2062616420257320617267756D656E96
:10121000740000006E616E004E414E00696E660003
:10122000494E460030000268531C0360117070473D
:101230000278C9B28A421AB11CBF10F8012FF9E72F
:1012400018BF00207047000080B508B90FF21C00DD
:1012500005490B681BB122220021984701E000F0EC
:1012600088FD222002BD0000C089FF1F636F6E73DE
:10127000747261696E742068616E646C65723A2084
:10128000626164206D6573736167650000F101033D
:10129000810704D010F8011B89B18107FAD10268D7
:1012A000B2F10131914311F0803F04BF50F8042F97
:1012B000F6E710F8011B11B110F8011BFBE7C01A8B
:1012C00070470000C9B2830706D0521E22D310F81F
:1012D000013B9942F7D11FE0083A13D302F104020F
:1012E00041EA012141EA014150F8043B121F21BFAC
:1012F0004B40A3F1013C2CEA030C1CF0803FF3D0DF
:10130000C9B2001F083210F8013B521E28BF91EAF3
:10131000030FF8D818BF0120401E7047B3BBD9B1E6
:10132000B2F5803F7DD2022A1ED98C46B1FBF2F184
:1013300002FB11C31B0443EA1043B3FBF2FC02FBA4
:101340001C3380B240EA0343B3FBF2F002FB1032DD
:1013500040EA0C4000237047022A05D98446B0FBBE
:10136000F2F002FB10C270474AB105D100F0010251
:1013700049085FEA3000704700220023704700F000
:10138000FBBC0B000200002100207047904271EB73
:10139000030CF6D3B3F5803F2FD2F0B5B3FA83F741
:1013A000B1FA81F4A7F10F0E3D1B5340CEF1200698
:1013B00002FA0EF2F3415340B5F10F0746D80F3C45
:1013C0002C444140C4F12006A040F1414140B1FB12
:1013D000F3F603FB1611A2FB0645001BA94102D23E
:1013E000761E8018594180EA010221FA0EF362FA52
:1013F0000EF200215A403046F0BD30B4B1FBF3FC90
:1014000003FB1C11A2FB0C45001BA94103D2ACF14C
:10141000010C8018594130BC02460B466046002141
:101420007047B2F1807F65D3F0B5B2FA82F7B1FAB6
:1014300081F4C7F10F063D1B22FA06F307F1110EE6
:10144000F24120355A40B5F10F07B8D94140C4F1F7
:101450002006A040F1414140B1FBF3FC03FB1C110D
:10146000A2FB0C45001BA94103D2BCF1010C801862
:1014700059410F2F12D30F3FC90341EA5041B1FB2D
:10148000F3F603FB1611A2FB0645D4EBC030A941CD
:1014900002D2761E8018594146EACC3C07B341403F
:1014A000C7F12006B840F1414140B1FBF3F603FB20
:1014B0001611A2FB0645001BA94102D2761E801818
:1014C000594180EA010221FA0EF3C7F1200462FAC1
:1014D0000EF20CFA07F05A402CFA04F13043F0BD3A
:1014E00080EA010221FA0EF3002162FA0EF2604650
:1014F0005A40F0BD8C46B1FBF2F102FB11C31B0256
:1015000043EA1063B3FBF2FC02FB1C331B024CEA00
:10151000002043EA1063B3FBF2FC02FB1C331B0206
:101520004CEA002043EA1063B3FBF2FC02FB1C33DD
:101530001B024CEA002043EA1063B3FBF2FC02FBFF
:101540001C324CEA0020002370470000B0B581EA4D
:10155000030C0CF0004C40F2FF7515EA11541DBF4E
:1015600015EA1357AC42AF4239E0E41923EA455378
:1015700043F48013C90241F0004141EA505EC702C2
:101580001100A7FB020200284FF00000EEFB012033
:101590004FF00001E3FB072118BF42F001024018A1
:1015A00000214941E3FB0E01A4F580640F0302D240
:1015B00052004041494154F101046CDD470872F189
:1015C000004250F1000051EB0451A1F580115CBFC5
:1015D00041EA0C01B0BD4CEA05510020B0BD05EA5E
:1015E0001357AC4214BFAF4241E050EA410E1CBF5A
:1015F00052EA430E02E061460020B0BD24423C4462
:101600001BD15FEA070EF6D0090302BF0146002096
:10161000AEF1140EB1FA81F7AEEB070401FA07FE42
:101620000C37C7F1200100FA07F7C8404EEA000E58
:1016300023EA455343F48013A2E733F00043B3FA9F
:1016400083F704BFB2FA82FE77440B3FE41BB7F185
:10165000200E2FBF02FA0EF3BB40C7F1200E22FA74
:101660000EFE38BF43EA0E03BA40641C82E750EA1C
:10167000410E14BF52EA430E6FF000014FF4001701
:1016800017EB430F8ABF194617EB410FB5E74CEA3A
:1016900005510020B0BDD4F10104B4F120070FDAE8
:1016A000C4F12007520828BF42F0010210FA07F5E2
:1016B00001FA07F7E1BF2A43E0403843E1400FE079
:1016C000352C98DCC7F1200452EA400220FA07F2D8
:1016D00018BF42F0010231FA07F0A1400A4300218D
:1016E00072F1004250F1000051EB0C01B0BD00005E
:1016F00062B38B0708D0521E11F8013B00F8013B82
:1017000000F024808B07F6D1830740F0208000BFD3
:10171000103A07D330B4B1E83810103AA0E83810C6
:10172000F9D230BC530724BFB1E80810A0E8081074
:1017300044BF51F8043B40F8043BD20724BF31F8C2
:10174000022B20F8022B44BF0B7803707047121F46
:1017500017D35B0009D151F8043B20F8023B1B0C66
:10176000121F20F8023BF6D20BE051F8043B00F8C0
:10177000013B1B0A20F8023B1B0C121F00F8013B27
:10178000F3D238BF121D521E24BF11F8013B00F8DE
:10179000013BF8D87047000010B5144600F002F87D
:1017A000226010BDC1F30A5343B14A0012F5001F75
:1017B00028D2A3F2FE32A1EB0251704750EA410C4D
:1017C00020D001F0004C31EA0C01B1FA81F204BFE3
:1017D000B0FA80F3D2180B3AB2F120032CBF00FA12
:1017E00003F1914041EA0C013EBFC2F1200C20FA06
:1017F0000CF319439040524240F2FD33D21A01EBF0
:1018000003517047002270474FF4001C1CEB410F3E
:1018100094BF1CEB430F09E041EA030C50EA4C0C67
:1018200052EA0C0C03D2994208BF9042704714BF91
:101830008B428242704700004FF4001C1CEB410FAA
:1018400094BF1CEB430F09E041EA030C50EA4C0C37
:1018500052EA0C0C03D28B4208BF8242704714BF7D
:101860009942904270470000124254D440F2FF7CEB
:101870001CEA11530FD0634531D09B1863453CBF20
:1018800001EB0251704701F0004141EA0C51002088
:10189000AFF30080704750EA410320D001F0004CC4
:1018A00091EA0C011CD0B1FA81F30B3B9A420DD99D
:1018B000D21A994051EA0C01C3F1200C20FA0CFC19
:1018C00061449840531C40F2FF7CD7E7914041EAC5
:1018D0000C01C2F1200C20FA0CF319439040704720
:1018E000B0FA80F31533202BE0D3202AEED3203A30
:1018F000203B9A4209D9D21A00FA03F141EA0C01BD
:101900000020531C40F2FF7CB8E700FA02F141EAE4
:101910000C0100207047524240F2FF7C1CEA115338
:101920000DD06345DBD0B2EB030C3CBFA1EB025101
:1019300070470CF1010221EA035141F4801150EA91
:10194000410CCCD001F0004C352A27DC30B481EAC0
:101950000C01B2F1200309DAC2F12003044601FAB6
:1019600003F5D0402843D1409C400CE0C3F1200255
:10197000450020FA03F418BF44F0010421FA03F0F3
:1019800091400C43002174F1004550F1000051EBEF
:101990000C01244230BC7FF47BAF704761460020CD
:1019A00076E70000C1F30A5340F2FE329B1A14DDC1
:1019B000D3F120034FEAE17208DDC90241EA505138
:1019C00041F00040D84080185040704703F2E130A9
:1019D00010B1D24382F000407047002070470000F1
:1019E000C11768B14840401AB0FA80F29040D21C4A
:1019F000C907C2F5846241EA025202EBD0214005D8
:101A00007047000070B44FF0004591EA030F40F1B9
:101A1000BD816B40841A71EB030603D2001BB141F8
:101A2000121973414FF4001C1CEB410F34BF7CEBC7
:101A3000430442E00C0DA4EB1356352E4FDC45EA6F
:101A4000C323DB0A45EAC121C912B6F120050DDD29
:101A500063FA05F6EB4086EA0305124218BF45F02B
:101A60000105C01851F100010CD213E062FA06F52D
:101A7000F2405540F3415A40B340F3405A40801879
:101A8000594107D349085FEA30005FEA350528BFAE
:101A900045F0010501F58011420875F1004250F151
:101AA000000041EB04514E0016F5001F70BC38BF1A
:101AB00070470020090D090570471CEB410F10D23B
:101AC00052EA43060BD0BCEB410F05D80C0DAB43DB
:101AD000661E342EB6DD02E0AB438018594170BC5F
:101AE000704770BC70470000F0B540F2FF7581EAA6
:101AF000030C0CF0004C15EA11541DBF15EA1357E6
:101B0000AC42AF42E5E0BC41C1F31301C3F31303A0
:101B1000801A994143F4801304D2641E4000494165
:101B200080185941C90241EA5051B1FBF3F603FB59
:101B30001611A2FB0675D7EBC020A94102D2761E72
:101B400080185941C90241EA5051B1FBF3FE03FB31
:101B50001E11A2FB0E75D7EBC020A94103D2AEF136
:101B6000010E80185941890241EA9051760546EAF2
:101B70008E2EB1FBF3F603FB1611A2FB0675D7EB15
:101B80008020A94102D2761E80185941C90241EA3B
:101B900050514EEA060EB1FBF3F603FB1611A2FB01
:101BA0000675D7EBC020A94102D2761E8018594194
:101BB000C90241EA5051B1FBF3F703FB1711A2FB35
:101BC0000735D3EBC020A94167F100070CBF0042E5
:101BD00047F0010766F3D5274FEA1E31B80814F520
:101BE000806412DDBD0775F1004250EB0E5051EBE1
:101BF000045111F5801F5CBF41EA0C01F0BD4CF0AF
:101C00007F6141F0E0410020F0BDBD076D0840EA72
:101C10000E5041F48011D4F10104B4F120060ADA27
:101C2000C4F120060200E04001FA06F3E140184347
:101C3000B24015430EE0342C13DCC6F1200445EA13
:101C400040056D0820FA06F2154321FA06F0A1407E
:101C50000D43002175F1004250F1000051EB0C01E1
:101C6000F0BD00205FEA0C01F0BDCFB992185B41D6
:101C7000B3FA83F704BFB2FA82F6BF190B3FB7F18C
:101C800020062FBF02FA06F3BB40C7F1200622FA56
:101C900006F638BF3343BA401CB1E419641E33E77B
:101CA0007F4231F00041B1FA81F404BFB0FA80F60E
:101CB000A4190B3CB4F120062FBF00FA06F1A14095
:101CC000C4F1200620FA06F638BF3143A0403C1B81
:101CD0001AE7AC421ABF05EA1357AF4212E050EAC6
:101CE00041061CBF52EA4306BFE750EA41073046AF
:101CF00061461CBF41EA0551F0BD52EA430C08BFE2
:101D0000C143F0BD00204FF4001616EB410F98BF01
:101D100016EB430F08BF16EB410F24BFC14305E08C
:101D200016EB430F0CBF61464CEA0551F0BD0000B5
:101D3000400D491840EA81200CD2490DA1F580617F
:101D4000491C40F0004005DBD1F11F0154BFC840E1
:101D5000C017704700207047014648B1B0FA80F1C3
:101D60008840C91CC1F58461090501EBD0214005FB
:101D70007047012000F0BEB87047000070B44FF00B
:101D8000004591EA030F7FF545AE6B40841A71EB75
:101D9000030604D26E40001BB141121973414FF487
:101DA000001C1CEB410F34BF7CEB430682E00C0DA2
:101DB000A4EB1356362E7BDC012E45EAC32341DC0F
:101DC00043EA525312BFD20292025B08240545EA4D
:101DD000C12141EA5051D2EBC020994125D407D10D
:101DE000B0FA80F610FA06F162D00020203608E042
:101DF000B1FA81F6B140C6F1200220FA02F2114395
:101E0000B0404FEAF474B4EB465434F001064FEAA4
:101E100074040AD8D6F50016760D04F00044F0409C
:101E200061FA06F25040F1404840C00A40EA415091
:101E300021F0004128BF5FEA500550F1000044EB5B
:101E4000D12135E0DB0A45EAC121C90AB6F12005F6
:101E50000EDD42EA0242120CC5F1200603FA06F634
:101E6000EB4042EA06056D42984161F100010DE048
:101E700062FA06F5F240554063FA06FC82EA0C026B
:101E8000F3405A406D42904161EB030111F4801F11
:101E900005D1641E620502D06D004041494121F424
:101EA0008011430875F1004350F1000041EB0451EB
:101EB00070BC70471CEB410F15D223F0004352EA6F
:101EC00043060BD04FEA4C0CBCEB410F04D80C0D71
:101ED000661E342EB7DDEBE7801A994150EA4106C1
:101EE00008BF0021E4E708BF1CEB430F28BF6FF0D9
:101EF0000001DDE780B500F007F8024A1100182064
:101F0000ABBEFBE72600020010B500F052F802005D
:101F10000023DB4300241068984203D01100022004
:101F2000ABBE14605068984203D0111D0220ABBEB6
:101F3000546010BDF0B583B0040000F03AF8A10081
:101F400047183D680026F643B54216D100F01AF84E
:101F50003D68B5420FD100BF09A00090002C01D10F
:101F6000002000E004200190032002906946012037
:101F7000ABBE05003D6000F014F8280003B0F0BDD2
:101F80003A7474000C480121BFF35F8FD0E84F3FD3
:101F9000C0E8421F002AF9D1BFF35F8F002BF3D1B5
:101FA00070470548BFF35F8F00210170BFF35F8F5B
:101FB0007047024870470000DB89FF1F7404FF1F51
:101FC00030EE600ADFF8800C90ED001A40EE010A56
:101FD000B0EE600A704780B52DED0C8BF0EE409AA4
:101FE000B0EE60AAF0EE41AAB0EE618AF0EE428A4D
:101FF000B0EE629AB0EE43BADFF8500CD0ED00BA02
:10200000DFF8480C90ED01CADFF8400CD0ED02CAB1
:10201000DFF8380C90ED03DA28EE080A08EEA80A7B
:1020200009EE090A10EE100A00F04CFE41EC100B0C
:1020300000F06CFE53EC102B0020DFF8181CFFF7AB
:1020400053FD00F0E5FE00EE100A68EE000A28EEEF
:10205000801A29EE000A6CEE0D1A4BEEEC1A2CEEEB
:102060008D2A0BEE8C2AFEEE002A4BEEAB2A4DEEAB
:102070000D2A21EE223A00EE423A20EE210A00EE2D
:10208000E20A60EE820A41EE610ADFF8CC0B90EDC5
:10209000001A23EE011ADFF8C40BD0ED001A41EE4E
:1020A0000B1ADFF8B80BC0ED001ADFF8AC0B90ED9F
:1020B000001A20EE011ADFF8A40BD0ED011A41EE50
:1020C0000B1ADFF8980BC0ED011ADFF88C0B90EDBE
:1020D000001A20EE811ADFF8840BD0ED021A41EECF
:1020E0000B1ADFF8780BC0ED021ADFF8740B90EDD5
:1020F000001AF0EE691A41EE031ADFF8600B90ED5A
:10210000001A31EE811AF6EE001A21EE211A21EEA4
:102110000B1ADFF84C0BD0ED001AB0EE4A2A01EE94
:10212000802ADFF8380B90ED010A32EE000AF6EE55
:10213000001A20EE210A20EE0B0ADFF8240BD0ED66
:10214000001A41EEA0AADFF8140BD0ED020A7AEED5
:10215000A00AF6EE001A60EEA10A60EE8B0AF1EE1C
:102160004C1A61EE811A4CEEC01A4DEE601ADFF87F
:10217000DC0A90ED002A71EE821ADFF8D00AC0ED79
:10218000001A6BEE811A4CEEA01A4DEE401ADFF8E1
:10219000BC0A90ED012A71EE821ADFF8B00AC0ED98
:1021A000011A6BEE801A4CEE601A4DEE011ADFF840
:1021B0009C0A90ED022A71EE821ADFF8900AC0EDB7
:1021C000021A6BEEA00A4CEE000A4CEEC10ADFF8D0
:1021D0007C0A90ED030A30EE800ADFF8700A80ED89
:1021E000030ADFF8680A90ED000ADFF8600AD0ED14
:1021F000000A20EE200ADFF8540AD0ED010ADFF8C9
:102200004C0A90ED011A00EE810ADFF8400AD0ED89
:10221000020ADFF8380A90ED021A00EE810ADFF8B0
:102220002C0AD0ED030ADFF8240A90ED031A00EE21
:10223000810A10EE100A00F045FD41EC100B00F091
:1022400065FD53EC102B0020DFF8081AFFF74CFC5B
:1022500000F0DEFD00EE100ADFF8F009D0ED000A14
:1022600060EE800ADFF8E409C0ED000ADFF8DC095F
:10227000D0ED010A60EE800ADFF8D009C0ED010A56
:10228000DFF8C809D0ED020A60EE800ADFF8BC0969
:10229000C0ED020ADFF8B409D0ED030A20EE800A8F
:1022A000DFF8A80980ED030ABDEC0C8B01BD00002E
:1022B00080B52DED048B82B0DFF8900990ED000A17
:1022C000DFF88809D0ED020A20EE200ADFF87C0949
:1022D000D0ED010ADFF8740990ED031A00EEC10A8F
:1022E000F0EE000A20EE200ADFF86009D0ED000AC7
:1022F000DFF8580990ED011A60EE810ADFF84C0909
:1023000090ED021ADFF84409D0ED031A41EE210ADC
:10231000B0EE001A20EE818ADFF83009D0ED000A15
:10232000DFF8280990ED001A60EE810ADFF81C0939
:1023300090ED011ADFF81409D0ED011A41EE610A9F
:10234000DFF8080990ED021ADFF80009D0ED021A53
:1023500041EE610ADFF8F40890ED031ADFF8EC08AB
:10236000D0ED031A41EE210A20EE000A00EEA00A89
:1023700010EE100A00F0A6FC41EC100B00F0C6FCB9
:10238000B0EE409AF0EE609AB7EE000A28EE000A2E
:1023900010EE100A00F096FC53EC192BFFF7A4FB8B
:1023A00041EC100B00F071FD53EC102B5FF040403E
:1023B000DFF8B418FFF7CAF800F02AFDDFF8AC1810
:1023C0000860DFF8880890ED000ADFF88008D0ED9B
:1023D000020A20EE200ADFF87408D0ED030ADFF8C5
:1023E0006C0890ED011A00EEC10AF0EE000A20EE32
:1023F000200A10EE100A00F065FC41EC100B00F012
:102400003EFD53EC102B5FF04040DFF85C18FFF707
:102410009DF800F0FDFCDFF854184860DFF82C0848
:1024200090ED020ADFF82408D0ED020A20EE200A1F
:10243000DFF81808D0ED030ADFF8100890ED031A52
:1024400000EE810AF0EE000AB7EE001A00EE601A04
:1024500011EE100A00F036FC41EC110BB0EE418A8F
:10246000F0EE618ADFF8E40790ED000ADFF8DC07A0
:10247000D0ED030A20EE200ADFF8D007D0ED010AE4
:10248000DFF8C80790ED021A00EE810AF0EE000AAC
:1024900020EE200A10EE100A00F014FC41EC100BA4
:1024A000B0EE481AF0EE681A00F0F5FC53EC102B71
:1024B0005FF04040DFF8B017FFF748F800F0A8FCE5
:1024C000DFF8A8178860DFF8A807B0F90400002833
:1024D00006D4DFF898074068DFF8981708600BE02B
:1024E0009FED250ADFF88407D0ED010A30EE600A7F
:1024F000DFF8800780ED000ADFF8780790ED000A2A
:10250000F2EE040A20EE200ABDEEC00A10EE100A18
:1025100000B20090DFF8340790ED030ADFED170AF0
:1025200020EE200ABDEEC00A10EE103A1BB2DFF812
:102530001C0790ED020ADFED110A20EE200ABDEE25
:10254000C00A10EE102A12B2DFF8000790ED010A5F
:10255000DFED0A0A20EE200ABDEEC00A10EE101AC6
:1025600009B2DFF80C07B0F9040000F0A5FC02B0D6
:10257000BDEC048B01BD00000000344300007A4430
:1025800080B500F01BFD00221321402000F091FED9
:1025900000220D21402000F08CFE642000F01FFF7F
:1025A00003221321402000F084FE642000F017FF76
:1025B0006A462A213C2000F053FE9DF8002012F0CC
:1025C000FE022A213C2000F074FE002209213C205A
:1025D00000F06FFE02225C213C2000F06AFE5F22C8
:1025E0005B213C2000F065FE20225C213C2000F0B5
:1025F00060FE01220E213C2000F05BFE09222A2110
:102600003C2000F056FE0A2000F0E9FE01BD2DE955
:10261000F14F86B00C0015001E00109FDDF84480BD
:10262000DDF84890DDF84CA0DDF850B004AB062290
:1026300001213C2000F065FE02AB062233213C2044
:1026400000F05FFE6B4606220121402000F059FE9B
:102650009DF810009DF8111051EA002106980180A4
:102660009DF812009DF8131051EA002121809DF879
:1026700014009DF8151051EA002129809DF80800EA
:102680009DF8091051EA0021A9F800109DF80A00F0
:102690009DF80B1051EA0021AAF800109DF80C00DB
:1026A0009DF80D1051EA0021ABF800109DF80000D4
:1026B0009DF8011051EA002131809DF802009DF83B
:1026C000031051EA002139809DF804009DF805109F
:1026D00051EA0021A8F8001007B0BDE8F08F000013
:1026E00010B52DED0C8B8AB0002403E1DFF88805CE
:1026F0000490DFF888050390DFF884050290DFF886
:1027000084050190DFF880050090DFF88035DFF860
:102710008025DFF88015DFF88005FFF778FFDFF808
:102720007805B0F90000ADF81C00DFF868050088F6
:10273000ADF81E00DFF858050088ADF82000DFF87E
:102740004C05B0F900004042ADF81400DFF8380540
:10275000B0F900004042ADF81600DFF82805008807
:10276000ADF81800BDF9140000EE100AB8EEC00A6A
:10277000DFEDA80A80EE200A30EE080AB0EE408AAB
:10278000BDF9160000EE100AB8EEC00ADFEDA10A8E
:1027900080EE200A30EE280AF0EE408ABDF91800DB
:1027A00000EE100AB8EEC00ADFED9A0A80EE200AA9
:1027B00030EE090AB0EE409ABDF91C0000EE100A96
:1027C000B8EEC00ADFED930A80EE200A30EE290A47
:1027D000F0EE409ABDF91E0000EE100AB8EEC00AF5
:1027E000DFED8C0A80EE200A30EE0A0AB0EE40AA35
:1027F000BDF92000B0F5005000EE100AB8EEC00A96
:10280000DFED840A80EE200A30EE2A0AF0EE40AABC
:10281000BDF91400BDF9141010FB01F000EE100A10
:10282000B8EEC00ADFED7B0A80EE200A30EE2C0AFB
:10283000F0EE40CABDF91600BDF9161010FB01F00C
:1028400000EE100AB8EEC00ADFED720A80EE200A30
:1028500030EE0D0AB0EE40DABDF91800BDF91810DF
:1028600010FB01F000EE100AB8EEC00ADFED690AB5
:1028700080EE200A30EE2D0AF0EE40DABDF91C00A1
:10288000BDF91C1010FB01F000EE100AB8EEC00AF2
:10289000DFED600A80EE200A30EE0B0AB0EE40BA9F
:1028A000BDF91E00BDF91E1010FB01F000EE100A6C
:1028B000B8EEC00ADFED570A80EE200A30EE2B0A90
:1028C000F0EE40BABDF92000B0F50050BDF920107F
:1028D000B1F50051484300EE100AB8EEC00ADFED32
:1028E0004D0A80EE200A30EE0C0AB0EE40CA0220FB
:1028F00000F075FD2000441C80B2B0F5FA7FFFF6B1
:10290000F5AEB0EE6C0A08EE480A10EE100A00F0C0
:10291000D9F941EC100B00F0F9F953EC102B002021
:10292000DFF83013FFF7E0F8DFF87023DFF87033DB
:10293000FEF782FF6AD8B0EE4D0A08EEE80A10EE04
:10294000100A00F0BFF941EC100B00F0DFF953EC76
:10295000102B0020BF49FFF7C7F8DFF84023DFF84E
:102960004033FEF769FF51D8B0EE4B0A09EEE90A91
:1029700010EE100A00F0A6F941EC100B00F0C6F9B9
:1029800053EC102B0020B349FFF7AEF8C34AC44BF9
:10299000FEF752FF3AD8B0EE6B0A0AEE680A10EE64
:1029A000100A00F08FF941EC100B00F0AFF953EC76
:1029B000102B0020A749FFF797F8B84AB84BFEF74D
:1029C0003BFF23D8BDEEE90A10EE100AB549088096
:1029D000BDEECA0A10EE100AB2494880BDEEEA0AFE
:1029E00010EE100AAF498880BDEEC80A10EE100A3A
:1029F000AD490880BDEEE80A10EE100AAA494880E9
:102A0000BDEEC90A10EE100AA74988800AB0BDECD5
:102A10000C8B10BD0000FA4300B585B096480490B9
:102A200096480390964802909648019096480090E8
:102A3000964B974A97499848FFF7E9FD96480088D2
:102A40008B490880934800888949488090480088CD
:102A5000874988808D48B0F900004042934908803A
:102A60008948B0F900004042904948808548008874
:102A70008E4988807E4801888A480088091A7C48E7
:102A800001807B48418887484088091A78484180FE
:102A90007748818883488088091A754881808348EF
:102AA000018881480088091A804801807F48418850
:102AB0007D484088091A7D4841807C4881887A4851
:102AC0008088091A794881806948B0F9000000EED1
:102AD000100AB8EEC00ADFED5A0A20EE200ADFED38
:102AE000590A20EE200A724880ED000A6048B0F9C9
:102AF000020000EE100AB8EEC00ADFED510A20EE27
:102B0000200ADFED500A20EE200A694880ED010A14
:102B10005748B0F9040000EE100AB8EEC00ADFED25
:102B2000480A20EE200ADFED470A20EE200A60481E
:102B300080ED020A5D48B0F9000000EE100AB8EE20
:102B4000C00ADFED430A20EE200A5A4880ED000A51
:102B50005648B0F9020000EE100AB8EEC00ADFEDE8
:102B60003C0A20EE200A534880ED010A4F48B0F994
:102B7000040000EE100AB8EEC00ADFED350A20EEC0
:102B8000200A4C4880ED020A4B48D0ED000A484824
:102B900090ED000AFFF714FA474880ED000A464816
:102BA000D0ED010A424890ED010AFFF709FA4248C8
:102BB00080ED010A4048D0ED020A3D4890ED020A3E
:102BC000FFF7FEF93C4880ED020A3C48D0ED000AD0
:102BD000384890ED000AFFF7F3F9384880ED000A15
:102BE0003648D0ED010A334890ED010AFFF7E8F9C5
:102BF000324880ED010A3148D0ED020A2D4890EDAF
:102C0000020AFFF7DDF92D4880ED020A2B484068E3
:102C10002B4908609FED133A2748D0EC031A274848
:102C200090EC030AFFF7D7F9FFF742FB05B000BDB0
:102C3000234890ED000A70470E4890ED000A704757
:102C4000F80700390AE81C415C04FF1F4C04FF1F11
:102C500045798B3A0000F03F445F00004889FF1F30
:102C6000405F00000AD7A33CDCA54C405489FF1FFD
:102C70007089FF1F9C89FF1FD489FF1FD289FF1F06
:102C8000D089FF1FCE89FF1FCC89FF1FCA89FF1F74
:102C9000C889FF1FC689FF1FC489FF1F010000E00C
:102CA0004D62503F6089FF1F6889FF1F7889FF1FB1
:102CB0008C89FF1F8089FF1FAC89FF1FA089FF1F20
:102CC0009889FF1FC0F3C75181B1FF2906D0C110F9
:102CD000400721F0E04101F16051704741020CBF13
:102CE00040F4E0016FF000410020704700F0004127
:102CF00000020AD0B0FA80FC00FA0CF001F1605139
:102D0000A1EB0C5101EBD0214005704751EC100BA9
:102D100000B500F003F841EC100B00BD40F2FF7C61
:102D20000B0D4DD0634566D230B421EA035141F416
:102D3000801103F2FD3C5FEA5C0C01D300184941AD
:102D4000890041EA907180004FF440140023E202B0
:102D5000D50AB1F5100107D46D081DD2091B6419FD
:102D600000184941491BF7D56D080AD20919641B9F
:102D700000184941491BEFD56D08F7D301E052080F
:102D800017D0C01861419B1AAC4100184941801A04
:102D9000A941F4D452080AD0C01AA1419B186C4131
:102DA00000184941801AA941E9D45208F4D15B1CAA
:102DB0006C4161084FEA330001EB0C5130BC7047A5
:102DC00050EA0103FBD030B4B1FA81F311B9B0FA83
:102DD00080F41B190B3BB3F120042FBF00FA04F160
:102DE0009940C3F1200420FA04F438BF21439840ED
:102DF000D3F101039DE7634514BF50EA410CDEE7C0
:102E000011F5801FDBD8D943AFF300807047000075
:102E100001F000428B1AA3F16051B1F5801F0ADB6B
:102E2000B1F17F6F1FD242EAC102C10071F10041CE
:102E300042EB507070470B15C3F10903212B10D2E0
:102E4000890241EA905180020128494141F0004144
:102E500021FA03F0C3F12003994071F10041504180
:102E60007047100070476FF0000013EB103F5CBF1D
:102E7000000E42EAC050704741EC100B01BD80B516
:102E800051EC100B00F0B4FAF6E780B551EC100BE2
:102E900000F026FBF0E780B553EC112B51EC100B42
:102EA00000F074FBE8E7000080B50A00D2B2010030
:102EB000042000F00BFD01BD1FB500217FF055007F
:102EC000DFF8F420C9B25054491C7FF05500DFF8F8
:102ED000E820C9B25054491C0220DFF8DC20C9B2F6
:102EE0005054491C0020DFF8D020C9B25054491C6E
:102EF0009DF80100DFF8C020C9B25054491C9DF86C
:102F00000000DFF8B420C9B25054491C9DF80500F8
:102F1000DFF8A420C9B25054491C9DF80400DFF822
:102F20009820C9B25054491C9DF80900DFF8882048
:102F3000C9B25054491C9DF80800DFF87C20C9B282
:102F40005054491C9DF80D00DFF86C20C9B2505454
:102F5000491C9DF80C00DFF86020C9B25054491C90
:102F60009DF81900DFF85020C9B25054491C9DF853
:102F70001800DFF84420C9B25054491C081FDFF87C
:102F80003820D0700022002305E0DFF82C00DBB2EF
:102F9000C05682185B1C18000C00C0B2E4B2A042FC
:102FA000F3D3DFF81400C9B24254491CC9B2DFF8A8
:102FB0000800FFF779FF1FBDA404FF1F80B50123A0
:102FC00001220821A34800F01BFD01230122092151
:102FD000A04800F015FD9F48006850F480709D499E
:102FE00008609C48006850F400709A49086001BD70
:102FF00080B59948006850F400709749086095487A
:10300000006850F40070934908609248006850F4DA
:10301000807090490860042000F0C6F98D4800686F
:1030200030F400708B490860042000F0BDF9894835
:10303000006830F480708749086001BD80B586481B
:10304000006850F40070844908608248006830F4D9
:103050008070804908607F48006830F400707D49C6
:103060000860042000F0A0F97A48006850F48070ED
:10307000784908607748006850F400707549086026
:10308000042000F091F901BD10B5002472480068D9
:1030900030F40070704908606E48006850F40070A9
:1030A0006C490860012000F07FF96A48006850F41C
:1030B000807068490860012000F076F96748006870
:1030C000C0F34020002807D0641CE4B2FB2CF5DBE1
:1030D000FFF7B4FF012006E05E48006830F480701E
:1030E0005C490860002010BD80B55A48006830F483
:1030F0008070584908605848006850F4007056497C
:1031000008605448006830F400705249086001209B
:1031100000F04AF94F48006850F480704D4908604B
:10312000022000F041F94B48006830F480704949B2
:10313000086001BD80B54748006830F4807045499B
:1031400008604548006850F40070434908604148F1
:10315000006850F400703F490860012000F024F935
:103160003C48006850F480703A490860012000F043
:103170001BF93848006830F480703649086001BD9A
:1031800038B504003448006850F4007032490860D3
:103190003048006830F480702E490860002520E037
:1031A0002000C0B2C009C0B22A49096860F34921B1
:1031B000284801606400012000F0F6F82548006806
:1031C00050F4807023490860012000F0EDF8214898
:1031D000006830F480701F490860012000F0E4F8B6
:1031E0006D1CEDB2082DDBDB31BD70B50400002590
:1031F0001948006830F400701749086000261AE08A
:103200001448006830F4807012490860012000F012
:10321000CBF81048006850F480700E4908606D00CB
:103220000E480068C0F34020002800D06D1C01202B
:1032300000F0BAF8761CF6B2082EE1DBE4B2002CFE
:1032400002D0FFF751FF01E0FFF774FF2800C0B282
:1032500070BD0000C0F00F40D4F00F40D0F00F4020
:1032600070B504000D001600FFF7C2FE2000C0B2CA
:10327000FFF786FFFFF708FF002803D0FFF7DEFE09
:10328000012015E02800C0B2FFF77AFFFFF7FCFE2F
:10329000FFF7AEFE641C2000C0B2FFF771FFFFF71E
:1032A000F3FE0020FFF7A1FF3070FFF7C7FE0020FC
:1032B00070BD70B504000D001600FFF799FE2000E8
:1032C000C0B2FFF75DFFFFF7DFFE002803D0FFF776
:1032D000B5FE012014E02800C0B2FFF751FFFFF750
:1032E000D3FE3000C0B2FFF74BFFFFF7CDFE002842
:1032F00003D0FFF7A3FE012002E0FFF79FFE0020AE
:1033000070BDF8B506000F0014001D000020FFF787
:103310006FFE3000C0B2FFF733FFFFF7B5FE0028A5
:1033200003D0FFF78BFE012028E03800C0B2FFF782
:1033300027FFFFF7A9FEFFF75BFE761C3000C0B247
:10334000FFF71EFFFFF7A0FE00260EE00020FFF7AC
:103350004CFF07E0F6B2E4B2601E8642F6D00120D0
:10336000FFF743FFF6B2A855761C30002100C0B22B
:10337000C9B28842EED3FFF761FE0020F2BD000023
:103380000D49096808430C4908600C4800680B495E
:1033900008600B48006850F00500094908600848BB
:1033A0000068C003FBD5704780B5064909684843EB
:1033B000FFF7E6FF01BD000014E000E018E000E0C8
:1033C00010E000E0B889FF1F10B5040002E0012002
:1033D000FFF7EAFF2000441E0028F8D110BD80B599
:1033E00080B24FF47A714843FFF7EEFF01BD000051
:1033F000D0B52DED048B41EC180B48004015401C56
:1034000001D1090319D151EC180B20F0000221F071
:1034100000430020834208BF82420ED0C80F1ABF6B
:1034200043EC182B0824002451EC180B00224FF019
:103430007953FEF7E9F905D234BB51EC180BBDEC1A
:10344000048BD0BD9FED229B51EC190B53EC182B34
:10345000FEF7D8FA06460F4653EC182B51EC190B21
:10346000FEF78CFC32463B46FEF770F8FFF756FC41
:1034700041EC190B51EC180B174A184BFEF7C4F925
:1034800007D253EC192B0FE081F0004141EC180BEF
:10349000D3E701220D4BFEF7B7F90ED284F00204F8
:1034A00051EC190B53EC182BFEF71EFBBDEC048BF3
:1034B0002246BDE8D04000F0BBBBAFF30080BDECBE
:1034C000048B4FF0FF306FF00041D0BD0000F03FA3
:1034D000000000000000F03FCE3B7F669EA0E63F6C
:1034E00010B52DED028B41EC180B48004015401C27
:1034F00051EC180B15D148004015401C01D10903AF
:1035000018D19FED200B51EC100B0A4651EC180B13
:1035100001F00040024351EC100BBDEC028B114650
:1035200010BD20F0000221F000430020834208BFBC
:10353000824204D151EC180BBDEC028B10BDC80FB8
:103540001ABF43EC182B0824002451EC180B01225D
:103550000B4BFEF771F909D81946002053EC182BD4
:10356000FEF7C2FA41EC180B84F0020451EC180B80
:10357000BDEC028B2246BDE8104000F059BB00BFF5
:103580000000F03F182D4454FB21F93F10B52DEDFC
:10359000048B41EC180B43EC192B51EC190B480030
:1035A0004015401C3ED051EC180B48004015401C03
:1035B00038D0C80F08D021F0004053EC182B034638
:1035C00043EC182B082400E0002451EC190BC80F21
:1035D00008D021F0004053EC192B034643EC192B83
:1035E00084F0060451EC190B53EC182BFEF70CF980
:1035F00004D2FEF779FA41EC100B4EE020F0000205
:1036000021F000430020834204BF82429FED2A0B39
:1036100045D051EC180B53EC192BFEF765FA41EC31
:10362000100B3CE051EC180B48004015401C04D135
:10363000090318BF51EC180B3AD151EC190B480093
:103640004015401C04D1090318BF51EC190B2FD1B0
:1036500051EC190B48004015401C0CD109030AD14C
:1036600051EC180B48004015401C04D1090308BF59
:103670009FED130B01D09FED100B51EC180BC80FF1
:1036800014BF08240024DA0F18BF84F00604480091
:103690004015401C03D1090301D184F00204BDECA4
:1036A000048B2246BDE8104051EC100B00F0C0BA6C
:1036B000BDEC048B10BD00BF000000000000000046
:1036C000000000000000F03F10B440B2002806D017
:1036D00002282AD016D304284DD039D35EE0DFF873
:1036E000C422126852F48062DFF8B8321A604FF4D4
:1036F0004072DFF8B4321A604FF44072DFF8AC3237
:103700001A604BE0DFF89C22126852F40062DFF886
:1037100094321A604FF44072DFF894321A604FF41A
:103720004072DFF890321A6038E0DFF878221268D1
:1037300052F48052DFF86C321A604FF44072DFF8B6
:1037400078321A604FF44072DFF870321A6025E068
:10375000DFF85022126852F40052DFF848321A6043
:103760004FF44072DFF858321A604FF44072DFF8BD
:1037700054321A6012E0DFF85022126852F480626C
:10378000DFF844321A604FF44072DFF840321A60BA
:103790004FF44072DFF838321A60FFE7DFF8342266
:1037A00040B252F82020D27812F0F302DFF824322F
:1037B00040B253F82030DA70DFF8182240B252F8E5
:1037C00020209278DFF80C3240B253F820309A7003
:1037D00040B2002802D040B2012806D1DFF8F8211B
:1037E0001468DFF8F821544305E0DFF8F421146889
:1037F000DFF8E82154430A01B4FBF2F39BB2B3F5BE
:10380000005F01DB41F6FF73B4FBF1F29BB2B2EB58
:103810000312DFF8C01140B251F820100C7814F0F8
:10382000E004C3F304210C43DFF8A81140B251F8BF
:1038300020100C70DFF89C1140B251F820104B7032
:10384000DFF8901140B251F82010897A11F0E001B0
:1038500012F01F020A435F4940B251F820108A72E9
:103860005C4940B251F82010097C51F08801594A56
:1038700040B252F820201174564940B251F820103D
:10388000C97851F00C01534A40B252F82000C1707F
:1038900010BC70474F4940B251F820100979890691
:1038A000F8D54C4940B251F8200090F9070040B2D9
:1038B0007047484A40B252F8202012791206F8D5D3
:1038C000444A40B252F82000C171704770B50400FC
:1038D0000D00160006E095F90010200040B2FFF739
:1038E000E8FF6D1C3000461E0028F4D170BD00B505
:1038F00085B00020FFF7CEFF40B20200394968468C
:1039000000F09AFA142269460020FFF7DFFF05B0A5
:1039100000BD00B585B00120FFF7BCFF40B202003A
:103920003149684600F088FA142269460120FFF701
:10393000CDFF05B000BD00B599B00220FFF7AAFF8A
:1039400040B202002849684600F076FA64226946CF
:103950000220FFF7BBFF19B000BD00B585B0032002
:10396000FFF798FF40B202001F49684600F064FA72
:10397000142269460320FFF7A9FF05B000BD00B57A
:1039800085B00420FFF786FF40B202001649684662
:1039900000F052FA142269460420FFF797FF05B0A1
:1039A00000BD0000348004403C9004403890044046
:1039B0000CB0044010B004400CC0044008C00440E7
:1039C00040B0044044B004402880044064D0044027
:1039D00060D004406004FF1FB889FF1F40420F0001
:1039E000BC89FF1FFC5E0000105F0000012210F088
:1039F0001F018A40784940B2400941F820207047B1
:103A000070B4764C246854F47854744D2C600500DE
:103A1000734EAD1B08D0403D08D0403D08D0403D1E
:103A200008D0403D08D009E06E4C07E06E4C05E040
:103A30006E4C03E06E4C01E06E4CFFE74FF4807576
:103A400044F8215052B2012A15D1426901248C4018
:103A500022434261012B06D10268012313FA01F1CE
:103A6000114301600EE00268012313FA01F132EA0A
:103A70000101016006E04269012313FA01F132EA13
:103A80000101416170BC7047012A06D1026801231F
:103A900013FA01F11143016006E00268012313FAF1
:103AA00001F132EA0101016070470268012313FA53
:103AB00001F151400160704738B5494D401B08D0B5
:103AC000403809D040380AD040380BD040380CD0AC
:103AD0000EE0444C3B230BE0434C3C2308E0434CBA
:103AE0003D2305E0424C3E2302E0424C3F23FFE7EA
:103AF000D2B2120412F4702252F48072C9B244F8A5
:103B00002120180040B2FFF771FF31BD00203A4973
:103B10000968C140C90707D537490968012212FA67
:103B200000F0084334490860012033490968C14066
:103B3000C90707D530490968012212FA00F0084385
:103B40002D490860704700202C490968C140C90709
:103B500007D52A490968012212FA00F008432749CB
:103B60000860012025490968C140C90707D52349D4
:103B70000968012212FA00F00843204908607047E2
:103B800000201F490968C140C90707D51C490968B9
:103B9000012212FA00F0084319490860704700201A
:103BA00018490968C140C90707D5164909680122A3
:103BB00012FA00F00843134908600120114909680E
:103BC000C140C90707D50F490968012212FA00F060
:103BD00008430C490860704700E100E03880044069
:103BE00000F00F400090044000A0044000B00440EA
:103BF00000C0044000D00440A0900440A0A00440B5
:103C0000A0B00440A0D004400A2A2A2A2A41626FA8
:103C1000727420627574746F6E20696E746572724E
:103C20007570742A2A2A2A0A0A000000000000007F
:103C3000D0B52DED048B41EC180B144653EC182B2A
:103C400000206C4900F018F908BF9FED558B00F07B
:103C5000838051EC180B544A544BFDF7EDFD1DD8F1
:103C60009FED539B53EC182B51EC190BFDF76EFC99
:103C70000022514BFEF782F806460F4653EC182BF4
:103C800051EC190BFEF77AF802460B4630463946DE
:103C9000FDF72AFF41EC180B44F0010451EC180B1E
:103CA00021F0004101224FF07953FDF7C5FD53D8B3
:103CB00053EC182B51EC180BFDF748FC41EC190B99
:103CC00053EC182BFDF742FC06460F4653EC192B1C
:103CD0003A483B49FDF73AFC3A4A3B4BFEF74EF86F
:103CE00053EC192BFDF732FC384A394BFEF746F8F6
:103CF00032463B46FDF72AFC53EC182BFEF73EF804
:103D000006460F4653EC192B32483349FDF71EFC8B
:103D1000324A334BFEF732F853EC192BFDF716FC01
:103D2000304A314BFEF72AF853EC192BFDF70EFC05
:103D30002E4A2F4BFEF722F853EC192BFDF706FC09
:103D400000222C4BFEF71AF802460B463046394645
:103D5000FDF7CAFE41EC180BA00705D551EC180B76
:103D600081F0004141EC180B14F007020BD00FF268
:103D7000880303EBC20251EC180B53681268FDF77D
:103D8000FDFF41EC180B200705D551EC180B81F015
:103D9000004141EC180B51EC180BBDEC048BD0BD6D
:103DA000182D4454FB21E93F57CD9E5E1426D13F88
:103DB000AA4C58E87AB6FB3F0000F0BF845D571369
:103DC0004B57B03FB2934C19ED5EE43FBEDE02B9F3
:103DD0000240F83FDE39028FC7C0743F8AAB1283BE
:103DE000000CC83F24D7E508B6D8F03F0F34580E72
:103DF0005895FD3F0000F03F00000000000000006B
:103E000066732D3852C1E03F182D4454FB21F93F11
:103E100066732D3852C1F03F182D4454FB21F93FF1
:103E200066732D3852C10040182D4454FB210940BF
:103E30003FD038C6A6F104400CB430B583B0044678
:103E400006A802900A4600250194009502AB01A93C
:103E5000084878441E30FCF7F9FA01990D700028E3
:103E60004EBF04460198041B204603B030BC5DF8E9
:103E70000CFB00BFB3D3FFFF90420CD141EA030C0F
:103E800050EA4C0C07D0994205D14FF4001C1CEBB2
:103E9000410F38BF89427047DFF800F08104FF1FEF
:103EA000012210F01F018A40DFF8C81340B2400918
:103EB00041F82020704780B5DFF8AC03006840046B
:103EC00027D5DFF8A403006850F48040DFF898138A
:103ED0000860DFF89813DFF898030278BC204243AB
:103EE00011440420FFF7D8FFDFF884030078792815
:103EF00007DB0020DFF8781308703E20FFF7D0FFC3
:103F000021E0DFF86C030078401CDFF864130870D0
:103F100019E0DFF854030068000414D5DFF8480303
:103F2000006850F40040DFF8401308600020DFF81C
:103F3000401308700120DFF8401308701921DFF8E2
:103F40003C03FFF7B2FD01BDF8B50020ADF80C0051
:103F500000F098F903AA00215C2000F029FB00285A
:103F600040F00681BDF80C0041F22431884206D0B1
:103F7000DFF8BC250121022000F09BFCFEE7DFF802
:103F8000B4250121022000F094FCBC21782000F02F
:103F9000F1F8012000F047F90122AC21B82000F02F
:103FA000D3FA4FF4F072AD21B82000F0CDFA04221C
:103FB0002C21B82000F0C8FA8022C221B82000F0DD
:103FC000C3FA00220F21B82000F0BEFA40F201121D
:103FD0000F21B82000F0B8FA4FF4C4720721B820BE
:103FE00000F0B2FA00227021B82000F0ADFA40F2E1
:103FF0000332AF21B82000F0A7FA0122AC21B8208B
:1040000000F0A2FA4FF4F072AD21B82000F09CFA53
:104010003222AB21B82000F097FA45F62002B021F9
:10402000B82000F091FA40F203321C21B82000F0D1
:104030008BFA42F62E521321B82000F085FA40F296
:10404000C7322021B82000F07FFA10222421B820A6
:1040500000F07AFA03222B21B82000F075FA03222F
:104060002F21B82000F070FA40F2BB120821B820CE
:1040700000F06AFA40F2D9120921B82000F064FA7F
:1040800064220A21B82000F05FFA1A223221B820F7
:1040900000F05AFAE8220B21B82000F055FA40F25D
:1040A00003120F21B82000F04FFA3C22A521B820BE
:1040B00000F04AFA48F210023521B82000F044FA24
:1040C00003220C21B82000F03FFA09220E21DFF86C
:1040D000B001FFF7F1FC8A220F21DFF8A401FFF7FE
:1040E000EBFC002300220021DFF89401FFF788FC9D
:1040F000002300220121DFF88801FFF781FC002363
:1041000000220221DFF87801FFF77AFC0023002269
:104110000321DFF86C01FFF773FC00230022042168
:10412000DFF85C01FFF76CFC002300220521DFF8BB
:104130005001FFF765FC002300220621DFF8400153
:10414000FFF75EFC002300220721DFF83401FFF7B0
:1041500057FC01200290BC200190002000906D23AC
:10416000424ADFF8D413042000F0DEFB05B000BDA6
:10417000FEE7000038B505000C000022A4B2A00044
:1041800040F2F12188420EDAADB2A80040F2E1110E
:10419000884208DAA4B2A400ADB2AD0052F0020227
:1041A00052F0080213E0A4B2600040F2F12188420C
:1041B0000DDAADB2680040F2E111884207DAA4B22C
:1041C0006400ADB26D0052F0010252F0040252F0F0
:1041D000300292B20D21B82000F0B6F9220092B25E
:1041E0000421B82000F0B0F92A0092B20321B820CF
:1041F00000F0AAF9A4B2D4F53C74022094FBF0F2CA
:10420000521C92B20121B82000F09EF9ADB2D5F552
:10421000F075022095FBF0F2121D92B20221B82037
:1042200000F092F931BD1CB504000020ADF800008B
:104230006A46AF21B82000F0BBF964B2012C09D165
:10424000BDF8002052F0030292B2AF21B82000F076
:104250007BF908E0BDF800204FF6FC700240AF216A
:10426000B82000F071F913BDA0C004400405FF1F81
:10427000D689FF1F80E100E0D789FF1F00F00F40C3
:10428000C0F00F4080B5002301220021AB48FFF7AA
:10429000B7FB002301220121A848FFF7B1FB01BDB4
:1042A0000020002001E000BF401CC0B26428FADBFF
:1042B000704780B5A248006850F00200A04908602D
:1042C0009F48006850F001009D490860FFF7E8FF33
:1042D0009A48006850F001009849086097480068C3
:1042E00050F0020095490860FFF7DAFF9348006834
:1042F0004008400091490860FFF7D2FF8F480068EE
:1043000030F002008D490860FFF7CAFF01BD0000D0
:1043100080B58B48006850F00200894908608848E1
:10432000006850F0010086490860FFF7B9FF834834
:1043300000684008400081490860FFF7B1FF7F48EE
:10434000006850F002007D490860FFF7A9FF7B4834
:10435000006850F0010079490860FFF7A1FF01BD36
:1043600038B504007648006850F0010074490860D0
:10437000002522E071480068400840006F4908604D
:1043800007E02006F6D56D48006850F001006B4943
:1043900008606400FFF784FF6848006850F002007E
:1043A00066490860FFF77CFF6448006830F002004F
:1043B00062490860FFF774FF6D1CEDB2082DE0DB69
:1043C0005E48006850F001005C4908605C48006885
:1043D000400840005A490860FFF762FF57480068EC
:1043E00050F0020055490860FFF75AFF554804682D
:1043F00014F001045148006830F002004F49086091
:10440000FFF74EFF2000C0B232BD38B54C480068FF
:1044100050F002004A4908604948006840084000DE
:1044200047490860002514E04448006830F0020065
:1044300042490860FFF734FF4048006850F002002E
:104440003E490860FFF72CFF3E4800684008644181
:104450006D1CEDB2082DE7DB3848006830F0020033
:10446000364908603648006850F001003449086059
:10447000FFF716FF2000C0B232BD80B5304800689B
:1044800050F002002E4908602D48006850F00100ED
:104490002B4908602948006830F00200274908606D
:1044A000264800684008400024490860FFF7F8FEED
:1044B0002248006850F0020020490860FFF7F0FE33
:1044C0001E48006830F002001C490860FFF7E8FE53
:1044D00001BD000080B51A48006850F0020018497C
:1044E00008601748006850F001001549086013483B
:1044F000006830F0020011490860FFF7D1FE0F4854
:10450000006850F001000D490860FFF7C9FE0B4834
:10451000006850F0020009490860FFF7C1FE074833
:10452000006830F0020005490860FFF7B9FE01BDE0
:10453000305F0000385F0000D0F00F4000F10F4006
:1045400014F10F4010F10F402DE9F04105000E006D
:1045500017005FF0000801E018F101085FFA88F821
:10456000B8F1030F22DAFFF7A4FE2800C0B2FFF76C
:10457000F7FEC0B20128EFD03000C0B2FFF7F0FE66
:10458000C0B20128E8D0380080B2000AC0B2FFF7FC
:10459000E7FE3800C0B2FFF7E3FE0400E4B2012CEE
:1045A000DAD0FFF7B5FEE4B2002CD5D1BDE8F0813A
:1045B000F8B504000D00160000276400FFF779FE2F
:1045C0002000C0B2FFF7CCFEC7192800C0B2FFF729
:1045D000C7FEC719FFF76DFE641C2000C0B2FFF7CD
:1045E000BFFEC719FFF711FF3080FFF746FF308885
:1045F00000023080FFF709FF318851FA80F03080E7
:10460000FFF768FFFFF784FE3800C0B2F2BD00007C
:1046100001000822DFF80803006850F40050DFF8BA
:1046200000331860DFF8F802006830F48030DFF8FB
:10463000F032186024E0DFF8E802006830F400404F
:10464000DFF8DC32186009E00806F4D5DFF8D002A4
:10465000006850F40040DFF8C8321860DFF8C0028C
:10466000006850F48030DFF8B832186000BFDFF81F
:10467000B002006830F48030DFF8A43218604900DE
:104680001000421EC0B20028DED17047010008228F
:10469000DFF88C02006830F40050DFF884321860D4
:1046A000DFF87C02006830F48030DFF87432186084
:1046B00024E0DFF86C02006830F40040DFF860327C
:1046C000186009E00806F4D5DFF85402006850F4D9
:1046D0000040DFF84C321860DFF84402006850F404
:1046E0008030DFF83C32186000BFDFF83402006829
:1046F00030F48030DFF82832186049001000421E84
:10470000C0B20028DED1704710B50400B1F15000EE
:10471000C0B2FFF7BBFF2000C0B2000950F010008C
:10472000C0B2FFF7B3FF14F00F0454F001042000EF
:10473000C0B2FFF7ABFF10BD70B50400002508E064
:104740002000C0B2FFF764FF761CF6B2802EF7DBC4
:104750006D1CEDB2082D0CDAB5F15000C0B2FFF7B8
:1047600095FF0120FFF792FF1020FFF78FFF002633
:10477000EBE770BD06E040F2375211004A1E0029F7
:10478000FBD1401E0028F6D1704780B500230122DE
:104790000D21DFF88C01FFF733F9002301220E21F0
:1047A000DFF87C01FFF72CF9002301220F21DFF84D
:1047B0007001FFF725F9002301221021DFF86001C5
:1047C000FFF71EF9DFF85801006850F48030DFF879
:1047D00050110860DFF84801006830F48040DFF8CD
:1047E000401108603220FFF7C5FFDFF83401006890
:1047F00050F48040DFF828110860AE20FFF746FF34
:104800000020FFF743FF1020FFF740FF4020FFF795
:104810003DFF8120FFF73AFFCF20FFF737FFA120B0
:10482000FFF734FFC820FFF731FFA620FFF72EFF68
:10483000A820FFF72BFF3F20FFF728FFD320FFF72B
:1048400025FF0020FFF722FFD520FFF71FFF802064
:10485000FFF71CFFD920FFF719FFF120FFF716FF24
:10486000DA20FFF713FF1220FFF710FFDB20FFF71E
:104870000DFF4020FFF70AFF2020FFF707FF02206F
:10488000FFF704FF8D20FFF701FF1420FFF7FEFE66
:10489000A420FFF7FBFEA620FFF7F8FEAF20FFF7EE
:1048A000F5FE0020FFF748FF00210020FFF72CFF56
:1048B00001BD2DE9F84304000D0016000020002082
:1048C000002715E017485FFA88F8062101FB08F178
:1048D00008445FFA89F910F80900FFF799FE19F109
:1048E00001095FFA89F9B9F1060FEBDBA41D7F1C02
:1048F000FFB2F05D002811D0FFB2F05DB0F12008EA
:10490000E4B27F2C01DB00246D1C2900C9B2200019
:10491000C0B2FFF7F9FE5FF00009E2E7BDE8F183FE
:1049200080F00F40AC570000F0B59DF9144064B220
:10493000002C01D101260AE064B2012C01D102262B
:1049400005E064B2022C01D1042600E01026079D88
:10495000069FDFF850C2DCF800C05CF0020CDFF804
:1049600044E2CEF800C0DFF840C2DCF800C05CF0E2
:10497000020CDFF834E2CEF800C0DFF830C240B2FB
:104980005FEA401E4CF80E10DFF820C240B25FEA2A
:10499000401EF444CCF810200022DFF810C240B2D0
:1049A0005FEA401EF444ACF80420F6B2DFF8FC21C4
:1049B00040B25FEA401C6244968264B25FEA042C13
:1049C0001CF4E06C64B214F0070252EA0C0CDFF83D
:1049D000DC2140B25FEA401E7244A2F806C03A00F1
:1049E0005204520CDFF8C4C140B25FEA401EF444E6
:1049F000ACF816203A00D205D20DDFF8B0C140B2B3
:104A00005FEA401EF444ACF81E20DFF8A4211268CF
:104A100032F08002DFF898C1CCF80020F6B2DFF85F
:104A20008C2140B25FEA401C624496600022DFF8AD
:104A30007CC140B25FEA401EF444CCF80C20AA06C8
:104A400001D47F4200E00027DFF8602140B25FEA36
:104A5000401C624497610A22544F40B25FEA401CF6
:104A60006744BA831A00D2B25209313252F080023E
:104A7000504F40B23A54504802684FF40077180043
:104A8000C0B2400987403A434B4802604B48DBB212
:104A90001A00521150F822204848DBB21F007F1143
:104AA00050F8270047695FF0010C13F01F001CFA53
:104AB00000FC37EA0C0757614148DBB21A0052117B
:104AC00050F82200DBB213F01F02EDB215F003071D
:104AD000EDB2AD09EDB255EA074555F4807540F8E1
:104AE0002250DBB2002B01D0012000E00020334A2D
:104AF000DBB21D006D1152F82520304DDBB25B1189
:104B000055F823305B69012515FA00F033EA0000FF
:104B10005061294800684FF400720B009B0913F0A4
:104B200007039A401043244A106064B2002C03D05B
:104B3000022C09D004D30BE000200A1D107007E0FE
:104B400000200A1D108003E000200A1D1060FFE70E
:104B50000800103810F03F00F6B2F60056FA80F266
:104B60000CE0174B0C00A40914F0070453F8243090
:104B7000C0B24FF4817443F82040401C030014007D
:104B8000DBB2E4B2A342ECD3F0BD0F48006850F0B2
:104B900010000D4908600B48006830F0100009490A
:104BA00008607047408004403C8004400090004012
:104BB0000080004000100240388004401004FF1FB5
:104BC0002404FF1F0C8000402480004080B500F0CA
:104BD00037F8DFF884040068401CDFF87C140860B4
:104BE00000F072F800F0A3F9F3E780B5DFF86C0489
:104BF000006850F00100DFF8641408600020DFF85E
:104C000058140860FDF708FF01BD80B5DFF85004B7
:104C1000006850F00100DFF84814086000F0C4FAA2
:104C200001BD80B5DFF83C04006850F00100DFF8FA
:104C30003414086000F048F800F079F901BD000074
:104C400080B572B60B2000F023FBFFF77DF95FF40F
:104C5000E1310420FEF738FDFDF792FCFDF740FD41
:104C6000FFF793FDDFF8000400F0B3FCDFF8FC036E
:104C700000F0AFFC1421002000F056FD14210120AB
:104C800000F052FD002342F210720021DFF8000410
:104C900000F0A8FB002342F210720121DFF8F003BC
:104CA00000F0A0FB002342F210720321DFF8E003C2
:104CB00000F098FB002342F210720221DFF8D003CB
:104CC00000F090FB62B601BD10B50020DFF8A01324
:104CD00008700020DFF89C1308702DE0DFF89403C3
:104CE0000078C0B24000DFF8902310700800C0B216
:104CF0004000DFF888231070DFF88423DFF87403A6
:104D000003785E2043431A44DFF87833DFF8680302
:104D10000478BC20444303EB0400DFF860331B78C5
:104D2000C05C5054491C5E29D8DBDFF8480300788A
:104D3000401CDFF840130870DFF8380300783C2887
:104D400001DA0021EFE700F005F80120DFF8441355
:104D5000086010BD10B40020DFF82C13086000209C
:104D6000DFF828130860DFF830030068DFF82C1341
:104D70000978884205DADFF820030068DFF81C13A1
:104D80000870DFF818030078DFF814130968884208
:104D900005DADFF80C030068DFF800130870002064
:104DA00000E0401C3C2848DA00215E29F9DADFF8EF
:104DB000D0225E2303FB00F31A44525CDFF8DC329E
:104DC0001B789A420CD2DFF8B8225E2303FB00F373
:104DD0001A440A445278DFF8C4321B789A4222D32C
:104DE000DFF89C225E2303FB00F31A44525CDFF8D9
:104DF000AC321B789A4208D30022DFF8A8325E2436
:104E000004FB00F423445A5415E0DFF874225E23B7
:104E100003FB00F31A440A4412F8012CDFF87C3239
:104E20001B789A42E8D2FF22DFF878325E2404FB36
:104E300000F423445A54491CB7E7012016E000212E
:104E4000DFF86022C0B25E2303FB00F3D154DFF829
:104E50005412C0B25E2202FB00F21144DFF8482275
:104E600012681144002201F8012C401CC0B2DFF886
:104E70003C1209688842E2DBDFF830020068411E1C
:104E800000E0491EC9B200294FD00122D2B2DFF89A
:104E9000180200688242F4DADFF80802C9B25E2321
:104EA00003FB01F31844D2B2104410F8010C00289F
:104EB00023D0DFF8F001C9B25E2303FB01F31844ED
:104EC000D2B2104410F8010CFF282CD1DFF8D40125
:104ED000C9B25E2303FB01F31844D2B210444078F8
:104EE000FF2820D1DFF8BC01C9B25E2303FB01F328
:104EF0001844D2B2FF23835415E0DFF8A801C9B2E9
:104F00005E2303FB01F31844D2B21044407800281A
:104F1000CFD1DFF89001C9B25E2303FB01F318443F
:104F2000D2B200238354521CB0E710BC704738B58E
:104F300000200020002008247FE00020DFF864111A
:104F4000E4B25E2202FB04F21144EDB2495D002995
:104F500001D050F00100DFF84C11E4B25E2202FBF8
:104F600004F21144EDB2294491F85E10002901D0F9
:104F700050F00200DFF82C11E4B25E2202FB04F2D2
:104F80001144EDB2294491F8BC10002901D050F031
:104F90000400DFF81011E4B25E2202FB04F21144B7
:104FA000EDB2294491F81A11002901D050F00800FF
:104FB000DFF8F010E4B25E2202FB04F21144EDB21D
:104FC000294491F87811002901D050F01000DFF841
:104FD000D410E4B25E2202FB04F21144EDB2294483
:104FE00091F8D611002901D050F02000DFF8B4105C
:104FF000E4B25E2202FB04F21144EDB2294491F8BE
:105000003412002901D050F04000DFF89810E4B2CB
:105010005E2202FB04F21144EDB2294491F892128F
:10502000002901D050F08000C0B2FFF7F1FA6D1CEA
:10503000EDB25E2DFFF681AF0834E4B2382C0ADA07
:10504000E4B2082094FBF0F1491CC9B20020FFF73C
:105050005BFB0025ECE731BD3C89FF1F0C71034071
:105060001C7103402C7103400090034000A00340DA
:10507000D789FF1FD889FF1FDA89FF1FD989FF1F32
:105080002C73FF1F0405FF1FF804FF1FFC04FF1F04
:10509000008003400005FF1F4004FF1F7C04FF1F2A
:1050A0004404FF1F245DFF1F3804FF1F3C04FF1F43
:1050B00080B5DFF890010068020092B20021DFF8AD
:1050C000880100F080FADFF884010068020092B2E3
:1050D0000121DFF8740100F076FADFF8740100684E
:1050E000020092B20221DFF8600100F06CFADFF8F2
:1050F00064010068020092B20321DFF84C0100F065
:1051000062FA01BD10B50C0053490968012907DB9B
:1051100000214F4A116000F0B5F84E4908600AE0DE
:105120004D490968002906D500F0ACF848490860E7
:1051300000204849086049480068012808DB002031
:1051400040490860200000F09DF8404908600BE0ED
:1051500042480068002807D5200000F093F839493C
:10516000086000203949086010BD00004FF4FA5073
:1051700039490968884201DA3749086037490968BE
:10518000884201DA3549086034490968C14202DAC7
:105190004142324A116030490968C14202DA404254
:1051A0002D4908607047000010B500242C4800F01D
:1051B00051FA2C4908602C4800F04CFA40422B4927
:1051C0000860FDF739FD2A4880ED000AFDF730FD43
:1051D000B1EE400A274880ED000A2648D0ED000ACB
:1051E000234890ED000A00F017F823490860224890
:1051F0000068041B194804601848006816490860D4
:10520000FFF7B4FF1548016813480068FFF77AFFFD
:10521000FFF74EFF10BD00009FED091A30EE010AA6
:10522000164890ED001A21EE000A154890ED001A7C
:1052300000EE810ABDEEC00A10EE100A70470000B1
:105240000000B0C2F004FF1F00800340F404FF1F01
:10525000E804FF1FEC04FF1FE004FF1FE404FF1F2E
:10526000009003403489FF1F00A003403889FF1FCE
:105270004489FF1FD804FF1FDC04FF1F4804FF1FE1
:105280004089FF1F002801D54042FFE7704700001A
:1052900010B44A4B1B6853F47853484C236040B217
:1052A00000284BD040B2012818D047D303281BD088
:1052B00017D305281ED01AD3072821D01DD30928BB
:1052C00024D020D30B2827D023D30D2827D029D3AF
:1052D0000F282DD029D310282DD02FE00421002213
:1052E0002CE00421022229E00421042226E00421EA
:1052F000082223E004210A2220E004210C221DE0E0
:1053000004210E221AE00421102217E004211222A7
:1053100014E00421142211E0042118220EE00421DB
:105320001C220BE004211D2208E004211E2205E0BE
:1053300004211F2202E003211622FFE78020204BD8
:10534000187011F007001F4B18701F4800681E4BA3
:105350001B6853F47F031C4C23601C4B1C4C2360C4
:10536000194B186012F01F0050F04000194B1870D4
:10537000194800788006FBD5174800784006FBD511
:1053800000200F4B187014480078C0B2C0F38100A1
:105390000328F8D152B2103232204243022092FB4D
:1053A000F0F049B2491C90FBF1F00C4908600B4841
:1053B000006840080A49086010BC70473880044003
:1053C000004006400440064000F001400000270174
:1053D000448004400540064006400640B889FF1F4F
:1053E000BC89FF1F30B40400DFF8A452AC420DD0DA
:1053F000DFF8A052AC4251D0DFF89C52AC4268D0EA
:10540000DFF89852AC4200F07F8099E0DFF89042DC
:10541000246854F08074DFF888522C6049B2002967
:105420000BD0022915D00ED304291ED017D306297C
:1054300027D020D307292AD02FE04FF48064DFF84B
:1054400064522C607CE04FF48064DFF85C522C6086
:10545000F8E74FF48064DFF854522C60F2E74FF421
:105460008064DFF84C522C60ECE74FF48064DFF886
:1054700044522C60E6E74FF48064DFF83C522C6025
:10548000E0E74FF48064DFF834522C60DAE74FF441
:105490008064DFF82C522C60D4E76DE0DFF8004226
:1054A000246854F00074DFF8F8512C6049B20029E8
:1054B00002D0012906D00BE04FF44074DFF804520B
:1054C0002C603DE04FF44074DFF8FC512C60F8E7AD
:1054D00052E0DFF8CC41246854F08064DFF8C0511A
:1054E0002C6049B2002902D0012906D00BE04FF40C
:1054F0004074DFF8D8512C6022E04FF44074DFF89C
:10550000D0512C60F8E737E0DFF8C841246854F048
:105510000074DFF8C0512C6049B200290BD0022979
:1055200032D02BD3042939D033D3062940D03AD3F3
:10553000072942D046E04FF4C064DFF89C512C604C
:1055400049B200EBC104E46834F0040449B200EB52
:10555000C105EC60282449B200EBC105EC600B24C6
:10556000046092B282600022C2649BB249B200EB36
:10557000C1010B610021416030BC70474FF4C06431
:10558000DFF858512C60DBE74FF4C064544D2C60B9
:10559000D6E74FF4C064534D2C60D1E74FF4C0649C
:1055A000514D2C60CCE74FF4C064504D2C60C7E7E0
:1055B0004FF440744E4D2C60C2E74FF4C0644D4D23
:1055C0002C60BDE7D8E792B249B200EBC10002619E
:1055D000704701002F4A914203D02F4A91420FD0C9
:1055E0001CE02F49096851F000712D4A11604FF4F9
:1055F000E061414A11604FF4E061404A11600DE002
:105600002749096851F08061254A11604FF4C06153
:105610003B4A11604FF4C0613A4A1160416D51F04C
:1056200004014165D0F8801051F00801C0F88010E5
:105630000021C1644FF6FF718160D0F8801051F0F5
:105640000101C0F88010416D51F001014165002158
:10565000416070470100486800224A6000B270470C
:105660002948006800202849086000200120704770
:105670002648006800202549086000200120704766
:10568000234800680020224908600020012070475C
:10569000008003400090034000A0034000900B40B6
:1056A0003C80044004B0044008B004400CB0044006
:1056B00010B0044010C0044014C0044018C004409E
:1056C0001CC00440209004402490044028900440D2
:1056D0002C9004403080044014D0044018D0044082
:1056E0001CD0044020D0044024D0044028D00440E2
:1056F00028B0044030D0044030900440349004403E
:1057000048A004404CA00440508003405090034007
:1057100050A00340012210F01F018A401E4940B2F0
:10572000400941F82020704780B51C4A126852F4A5
:1057300000021A4B1A601A4A126892089200184B1B
:105740001A6049F640425143164A40B20301D15013
:10575000144940B202011144C96851F00101114AD3
:1057600040B203011A44D1600E4940B20201114413
:10577000896851F003010B4A40B203011A44916059
:10578000303040B2FFF7C6FF01BD0748006850F057
:10579000010005490860704700E100E03C800440DA
:1057A00000700340007103403C71034000000000A2
:1057B00000000000002F0000000007000700001498
:1057C0007F147F1400242A7F2A12006264081323A6
:1057D00000364955225000000503000000001C223D
:1057E0004100000041221C000014083E081400087B
:1057F000083E0808000000A060000008080808082B
:10580000000060600000002010080402003E5149C2
:10581000453E0000427F4000004261514946002160
:1058200041454B31001814127F100027454545397A
:10583000003C4A49493000017109050300364949D5
:10584000493600064949291E00003636000000008E
:1058500056360000000814224100001414141414D9
:105860000000412214080002015109060032495982
:10587000513E007C1211127C007F49494936003E9E
:1058800041414122007F4141221C007F4949494159
:10589000007F09090901003E4149497A007F080853
:1058A000087F0000417F4100002040413F01007F10
:1058B00008142241007F40404040007F020C027FDC
:1058C000007F0408107F003E4141413E007F0909EE
:1058D0000906003E4151215E007F09192946004614
:1058E000494949310001017F0101003F4040403FEB
:1058F000001F2040201F003F4038403F0063140835
:10590000146300070870080700615149454300000F
:105910007F41410000552A552A55000041417F0032
:105920000004020102040040404040400000010227
:105930000400002054545478007F48444438003810
:105940004444442000384444487F00385454541898
:1059500000087E0901020018A4A4A47C007F0804AA
:1059600004780000447D4000004080847D00007F7A
:10597000102844000000417F4000007C0418047897
:10598000007C0804047800384444443800FC242493
:1059900024180018242418FC007C0804040800487B
:1059A0005454542000043F444020003C4040207C9C
:1059B000001C2040201C003C4030403C004428108B
:1059C0002844001CA0A0A07C004464544C4414143F
:1059D0001414141480B540B2002806D0022838D020
:1059E0001DD3042869D04ED3ABE049B2002905D1BC
:1059F000002210215348FEF747F80FE049B2012971
:105A000005D1012210214F48FEF73EF806E049B2C9
:105A1000022903D110214B48FEF747F891E049B223
:105A2000002905D1002211214648FEF72DF80FE08C
:105A300049B2012905D1012211214248FEF724F87B
:105A400006E049B2022903D111213E48FEF72DF8A4
:105A500077E049B2002905D1002212213948FEF72A
:105A600013F80FE049B2012905D10122122135486E
:105A7000FEF70AF806E049B2022903D112213148A3
:105A8000FEF713F85DE049B2002905D10022132189
:105A90002C48FDF7F9FF0FE049B2012905D1012299
:105AA00013212848FDF7F0FF06E049B2022903D18F
:105AB00013212448FDF7F9FF43E049B2002914D12E
:105AC000002211211F48FDF7DFFF002212211D488F
:105AD000FDF7DAFF002210211A48FDF7D5FF00225A
:105AE00013211848FDF7D0FF2AE049B2012914D14B
:105AF000012211211348FDF7C7FF0122122111488D
:105B0000FDF7C2FF012210210E48FDF7BDFF012263
:105B100013210C48FDF7B8FF12E049B202290FD15A
:105B200011210848FDF7C1FF12210648FDF7BDFF0E
:105B300013210448FDF7B9FF10210248FDF7B5FF16
:105B4000FFE701BD40F00F4080B500F05BF800F0CA
:105B500009F82148006850F470001F490860FFF7F9
:105B600035F8FEE780B51D481D4988420BD000205E
:105B700006E01B4951F82010184A42F82010401C3A
:105B8000B0F5826FF5D3154800F058F8154A164B5A
:105B90001649C91A03E0187810705B1C521C0800E3
:105BA000411E0028F7D1124A1249891A02E000204A
:105BB0001070521C0800411E0028F8D10E4A0F4BED
:105BC0000F49C91A03E0187810705B1C521C0800BA
:105BD000411E0028F7D101BD88ED00E00000FF1F45
:105BE000000000001004FF1F485C0000B85C0000CB
:105BF000A404FF1FDC89FF1F8004FF1FB05D0000AD
:105C0000D45D000080B500F009F80A4801884FF61D
:105C1000FE7001400748018001BD000072B64CF2E1
:105C20002050054908804DF628100349088062B6C7
:105C300070470000002005400E2005400149086023
:105C40007047000008ED00E000F00F4040F00F400A
:105C500080F00F40C0F00F4000F10F400090044072
:105C600000A0044000B0044000C0044000D0044044
:105C70005E0000003C00000046000000280000001C
:105C800000007A430000803F000000000000000098
:105C900000000000CDCCCC3D00A0064000B0064086
:105CA00000C0064000D0064000A00E40FFFFFFFFEE
:105CB000FFFFFFFFFA00000019E050F8042BD307A4
:105CC00044BFA9F101039A18091F0023042942F8CF
:105CD000043BF9D25FEA817C134604D54FF0000CF7
:105CE000A2F800C09B1CC90744BF0021197050F8DE
:105CF000041B0029E1D1704780B509480178C9B279
:105D0000084800F015F801BD80B50748006850F05C
:105D1000807005490860054800F00AF801BD0000E0
